{"contracts/HistoriaClinica.sol":{"HistoriaClinica":{"abi":[{"anonymous":false,"inputs":[{"indexed":true,"internalType":"address","name":"autor","type":"address"},{"indexed":false,"internalType":"string","name":"fecha","type":"string"},{"indexed":false,"internalType":"string","name":"sintomas","type":"string"},{"indexed":false,"internalType":"string","name":"diagnostico","type":"string"},{"indexed":false,"internalType":"string","name":"tratamiento","type":"string"}],"name":"HistoriaRegistrada","type":"event"},{"inputs":[{"internalType":"string","name":"fecha","type":"string"},{"internalType":"string","name":"sintomas","type":"string"},{"internalType":"string","name":"diagnostico","type":"string"},{"internalType":"string","name":"tratamiento","type":"string"}],"name":"registrarHistoria","outputs":[{"internalType":"bytes32","name":"","type":"bytes32"}],"stateMutability":"nonpayable","type":"function"}],"evm":{"bytecode":{"linkReferences":{},"object":"6080604052348015600f57600080fd5b506105208061001f6000396000f3fe608060405234801561001057600080fd5b506004361061002b5760003560e01c8063a157ed2f14610030575b600080fd5b61004a60048036038101906100459190610249565b610060565b6040516100579190610339565b60405180910390f35b60003373ffffffffffffffffffffffffffffffffffffffff167f45f25703091e3eaeae833b5d196a970f4a43569fbc3948682cc36fee7f07cd60868686866040516100ae94939291906103d3565b60405180910390a284848484426040516020016100cf95949392919061049b565b604051602081830303815290604052805190602001209050949350505050565b6000604051905090565b600080fd5b600080fd5b600080fd5b600080fd5b6000601f19601f8301169050919050565b7f4e487b7100000000000000000000000000000000000000000000000000000000600052604160045260246000fd5b6101568261010d565b810181811067ffffffffffffffff821117156101755761017461011e565b5b80604052505050565b60006101886100ef565b9050610194828261014d565b919050565b600067ffffffffffffffff8211156101b4576101b361011e565b5b6101bd8261010d565b9050602081019050919050565b82818337600083830152505050565b60006101ec6101e784610199565b61017e565b90508281526020810184848401111561020857610207610108565b5b6102138482856101ca565b509392505050565b600082601f8301126102305761022f610103565b5b81356102408482602086016101d9565b91505092915050565b60008060008060808587031215610263576102626100f9565b5b600085013567ffffffffffffffff811115610281576102806100fe565b5b61028d8782880161021b565b945050602085013567ffffffffffffffff8111156102ae576102ad6100fe565b5b6102ba8782880161021b565b935050604085013567ffffffffffffffff8111156102db576102da6100fe565b5b6102e78782880161021b565b925050606085013567ffffffffffffffff811115610308576103076100fe565b5b6103148782880161021b565b91505092959194509250565b6000819050919050565b61033381610320565b82525050565b600060208201905061034e600083018461032a565b92915050565b600081519050919050565b600082825260208201905092915050565b60005b8381101561038e578082015181840152602081019050610373565b60008484015250505050565b60006103a582610354565b6103af818561035f565b93506103bf818560208601610370565b6103c88161010d565b840191505092915050565b600060808201905081810360008301526103ed818761039a565b90508181036020830152610401818661039a565b90508181036040830152610415818561039a565b90508181036060830152610429818461039a565b905095945050505050565b600081905092915050565b600061044a82610354565b6104548185610434565b9350610464818560208601610370565b80840191505092915050565b6000819050919050565b6000819050919050565b61049561049082610470565b61047a565b82525050565b60006104a7828861043f565b91506104b3828761043f565b91506104bf828661043f565b91506104cb828561043f565b91506104d78284610484565b602082019150819050969550505050505056fea26469706673582212201e0eaceb8550e0e969bc73ac7dd7219c92653fa121f80581d4a91b56458cdd5564736f6c634300081c0033","opcodes":"PUSH1 0x80 PUSH1 0x40 MSTORE CALLVALUE DUP1 ISZERO PUSH1 0xF JUMPI PUSH1 0x0 DUP1 REVERT JUMPDEST POP PUSH2 0x520 DUP1 PUSH2 0x1F PUSH1 0x0 CODECOPY PUSH1 0x0 RETURN INVALID PUSH1 0x80 PUSH1 0x40 MSTORE CALLVALUE DUP1 ISZERO PUSH2 0x10 JUMPI PUSH1 0x0 DUP1 REVERT JUMPDEST POP PUSH1 0x4 CALLDATASIZE LT PUSH2 0x2B JUMPI PUSH1 0x0 CALLDATALOAD PUSH1 0xE0 SHR DUP1 PUSH4 0xA157ED2F EQ PUSH2 0x30 JUMPI JUMPDEST PUSH1 0x0 DUP1 REVERT JUMPDEST PUSH2 0x4A PUSH1 0x4 DUP1 CALLDATASIZE SUB DUP2 ADD SWAP1 PUSH2 0x45 SWAP2 SWAP1 PUSH2 0x249 JUMP JUMPDEST PUSH2 0x60 JUMP JUMPDEST PUSH1 0x40 MLOAD PUSH2 0x57 SWAP2 SWAP1 PUSH2 0x339 JUMP JUMPDEST PUSH1 0x40 MLOAD DUP1 SWAP2 SUB SWAP1 RETURN JUMPDEST PUSH1 0x0 CALLER PUSH20 0xFFFFFFFFFFFFFFFFFFFFFFFFFFFFFFFFFFFFFFFF AND PUSH32 0x45F25703091E3EAEAE833B5D196A970F4A43569FBC3948682CC36FEE7F07CD60 DUP7 DUP7 DUP7 DUP7 PUSH1 0x40 MLOAD PUSH2 0xAE SWAP5 SWAP4 SWAP3 SWAP2 SWAP1 PUSH2 0x3D3 JUMP JUMPDEST PUSH1 0x40 MLOAD DUP1 SWAP2 SUB SWAP1 LOG2 DUP5 DUP5 DUP5 DUP5 TIMESTAMP PUSH1 0x40 MLOAD PUSH1 0x20 ADD PUSH2 0xCF SWAP6 SWAP5 SWAP4 SWAP3 SWAP2 SWAP1 PUSH2 0x49B JUMP JUMPDEST PUSH1 0x40 MLOAD PUSH1 0x20 DUP2 DUP4 SUB SUB DUP2 MSTORE SWAP1 PUSH1 0x40 MSTORE DUP1 MLOAD SWAP1 PUSH1 0x20 ADD KECCAK256 SWAP1 POP SWAP5 SWAP4 POP POP POP POP JUMP JUMPDEST PUSH1 0x0 PUSH1 0x40 MLOAD SWAP1 POP SWAP1 JUMP JUMPDEST PUSH1 0x0 DUP1 REVERT JUMPDEST PUSH1 0x0 DUP1 REVERT JUMPDEST PUSH1 0x0 DUP1 REVERT JUMPDEST PUSH1 0x0 DUP1 REVERT JUMPDEST PUSH1 0x0 PUSH1 0x1F NOT PUSH1 0x1F DUP4 ADD AND SWAP1 POP SWAP2 SWAP1 POP JUMP JUMPDEST PUSH32 0x4E487B7100000000000000000000000000000000000000000000000000000000 PUSH1 0x0 MSTORE PUSH1 0x41 PUSH1 0x4 MSTORE PUSH1 0x24 PUSH1 0x0 REVERT JUMPDEST PUSH2 0x156 DUP3 PUSH2 0x10D JUMP JUMPDEST DUP2 ADD DUP2 DUP2 LT PUSH8 0xFFFFFFFFFFFFFFFF DUP3 GT OR ISZERO PUSH2 0x175 JUMPI PUSH2 0x174 PUSH2 0x11E JUMP JUMPDEST JUMPDEST DUP1 PUSH1 0x40 MSTORE POP POP POP JUMP JUMPDEST PUSH1 0x0 PUSH2 0x188 PUSH2 0xEF JUMP JUMPDEST SWAP1 POP PUSH2 0x194 DUP3 DUP3 PUSH2 0x14D JUMP JUMPDEST SWAP2 SWAP1 POP JUMP JUMPDEST PUSH1 0x0 PUSH8 0xFFFFFFFFFFFFFFFF DUP3 GT ISZERO PUSH2 0x1B4 JUMPI PUSH2 0x1B3 PUSH2 0x11E JUMP JUMPDEST JUMPDEST PUSH2 0x1BD DUP3 PUSH2 0x10D JUMP JUMPDEST SWAP1 POP PUSH1 0x20 DUP2 ADD SWAP1 POP SWAP2 SWAP1 POP JUMP JUMPDEST DUP3 DUP2 DUP4 CALLDATACOPY PUSH1 0x0 DUP4 DUP4 ADD MSTORE POP POP POP JUMP JUMPDEST PUSH1 0x0 PUSH2 0x1EC PUSH2 0x1E7 DUP5 PUSH2 0x199 JUMP JUMPDEST PUSH2 0x17E JUMP JUMPDEST SWAP1 POP DUP3 DUP2 MSTORE PUSH1 0x20 DUP2 ADD DUP5 DUP5 DUP5 ADD GT ISZERO PUSH2 0x208 JUMPI PUSH2 0x207 PUSH2 0x108 JUMP JUMPDEST JUMPDEST PUSH2 0x213 DUP5 DUP3 DUP6 PUSH2 0x1CA JUMP JUMPDEST POP SWAP4 SWAP3 POP POP POP JUMP JUMPDEST PUSH1 0x0 DUP3 PUSH1 0x1F DUP4 ADD SLT PUSH2 0x230 JUMPI PUSH2 0x22F PUSH2 0x103 JUMP JUMPDEST JUMPDEST DUP2 CALLDATALOAD PUSH2 0x240 DUP5 DUP3 PUSH1 0x20 DUP7 ADD PUSH2 0x1D9 JUMP JUMPDEST SWAP2 POP POP SWAP3 SWAP2 POP POP JUMP JUMPDEST PUSH1 0x0 DUP1 PUSH1 0x0 DUP1 PUSH1 0x80 DUP6 DUP8 SUB SLT ISZERO PUSH2 0x263 JUMPI PUSH2 0x262 PUSH2 0xF9 JUMP JUMPDEST JUMPDEST PUSH1 0x0 DUP6 ADD CALLDATALOAD PUSH8 0xFFFFFFFFFFFFFFFF DUP2 GT ISZERO PUSH2 0x281 JUMPI PUSH2 0x280 PUSH2 0xFE JUMP JUMPDEST JUMPDEST PUSH2 0x28D DUP8 DUP3 DUP9 ADD PUSH2 0x21B JUMP JUMPDEST SWAP5 POP POP PUSH1 0x20 DUP6 ADD CALLDATALOAD PUSH8 0xFFFFFFFFFFFFFFFF DUP2 GT ISZERO PUSH2 0x2AE JUMPI PUSH2 0x2AD PUSH2 0xFE JUMP JUMPDEST JUMPDEST PUSH2 0x2BA DUP8 DUP3 DUP9 ADD PUSH2 0x21B JUMP JUMPDEST SWAP4 POP POP PUSH1 0x40 DUP6 ADD CALLDATALOAD PUSH8 0xFFFFFFFFFFFFFFFF DUP2 GT ISZERO PUSH2 0x2DB JUMPI PUSH2 0x2DA PUSH2 0xFE JUMP JUMPDEST JUMPDEST PUSH2 0x2E7 DUP8 DUP3 DUP9 ADD PUSH2 0x21B JUMP JUMPDEST SWAP3 POP POP PUSH1 0x60 DUP6 ADD CALLDATALOAD PUSH8 0xFFFFFFFFFFFFFFFF DUP2 GT ISZERO PUSH2 0x308 JUMPI PUSH2 0x307 PUSH2 0xFE JUMP JUMPDEST JUMPDEST PUSH2 0x314 DUP8 DUP3 DUP9 ADD PUSH2 0x21B JUMP JUMPDEST SWAP2 POP POP SWAP3 SWAP6 SWAP2 SWAP5 POP SWAP3 POP JUMP JUMPDEST PUSH1 0x0 DUP2 SWAP1 POP SWAP2 SWAP1 POP JUMP JUMPDEST PUSH2 0x333 DUP2 PUSH2 0x320 JUMP JUMPDEST DUP3 MSTORE POP POP JUMP JUMPDEST PUSH1 0x0 PUSH1 0x20 DUP3 ADD SWAP1 POP PUSH2 0x34E PUSH1 0x0 DUP4 ADD DUP5 PUSH2 0x32A JUMP JUMPDEST SWAP3 SWAP2 POP POP JUMP JUMPDEST PUSH1 0x0 DUP2 MLOAD SWAP1 POP SWAP2 SWAP1 POP JUMP JUMPDEST PUSH1 0x0 DUP3 DUP3 MSTORE PUSH1 0x20 DUP3 ADD SWAP1 POP SWAP3 SWAP2 POP POP JUMP JUMPDEST PUSH1 0x0 JUMPDEST DUP4 DUP2 LT ISZERO PUSH2 0x38E JUMPI DUP1 DUP3 ADD MLOAD DUP2 DUP5 ADD MSTORE PUSH1 0x20 DUP2 ADD SWAP1 POP PUSH2 0x373 JUMP JUMPDEST PUSH1 0x0 DUP5 DUP5 ADD MSTORE POP POP POP POP JUMP JUMPDEST PUSH1 0x0 PUSH2 0x3A5 DUP3 PUSH2 0x354 JUMP JUMPDEST PUSH2 0x3AF DUP2 DUP6 PUSH2 0x35F JUMP JUMPDEST SWAP4 POP PUSH2 0x3BF DUP2 DUP6 PUSH1 0x20 DUP7 ADD PUSH2 0x370 JUMP JUMPDEST PUSH2 0x3C8 DUP2 PUSH2 0x10D JUMP JUMPDEST DUP5 ADD SWAP2 POP POP SWAP3 SWAP2 POP POP JUMP JUMPDEST PUSH1 0x0 PUSH1 0x80 DUP3 ADD SWAP1 POP DUP2 DUP2 SUB PUSH1 0x0 DUP4 ADD MSTORE PUSH2 0x3ED DUP2 DUP8 PUSH2 0x39A JUMP JUMPDEST SWAP1 POP DUP2 DUP2 SUB PUSH1 0x20 DUP4 ADD MSTORE PUSH2 0x401 DUP2 DUP7 PUSH2 0x39A JUMP JUMPDEST SWAP1 POP DUP2 DUP2 SUB PUSH1 0x40 DUP4 ADD MSTORE PUSH2 0x415 DUP2 DUP6 PUSH2 0x39A JUMP JUMPDEST SWAP1 POP DUP2 DUP2 SUB PUSH1 0x60 DUP4 ADD MSTORE PUSH2 0x429 DUP2 DUP5 PUSH2 0x39A JUMP JUMPDEST SWAP1 POP SWAP6 SWAP5 POP POP POP POP POP JUMP JUMPDEST PUSH1 0x0 DUP2 SWAP1 POP SWAP3 SWAP2 POP POP JUMP JUMPDEST PUSH1 0x0 PUSH2 0x44A DUP3 PUSH2 0x354 JUMP JUMPDEST PUSH2 0x454 DUP2 DUP6 PUSH2 0x434 JUMP JUMPDEST SWAP4 POP PUSH2 0x464 DUP2 DUP6 PUSH1 0x20 DUP7 ADD PUSH2 0x370 JUMP JUMPDEST DUP1 DUP5 ADD SWAP2 POP POP SWAP3 SWAP2 POP POP JUMP JUMPDEST PUSH1 0x0 DUP2 SWAP1 POP SWAP2 SWAP1 POP JUMP JUMPDEST PUSH1 0x0 DUP2 SWAP1 POP SWAP2 SWAP1 POP JUMP JUMPDEST PUSH2 0x495 PUSH2 0x490 DUP3 PUSH2 0x470 JUMP JUMPDEST PUSH2 0x47A JUMP JUMPDEST DUP3 MSTORE POP POP JUMP JUMPDEST PUSH1 0x0 PUSH2 0x4A7 DUP3 DUP9 PUSH2 0x43F JUMP JUMPDEST SWAP2 POP PUSH2 0x4B3 DUP3 DUP8 PUSH2 0x43F JUMP JUMPDEST SWAP2 POP PUSH2 0x4BF DUP3 DUP7 PUSH2 0x43F JUMP JUMPDEST SWAP2 POP PUSH2 0x4CB DUP3 DUP6 PUSH2 0x43F JUMP JUMPDEST SWAP2 POP PUSH2 0x4D7 DUP3 DUP5 PUSH2 0x484 JUMP JUMPDEST PUSH1 0x20 DUP3 ADD SWAP2 POP DUP2 SWAP1 POP SWAP7 SWAP6 POP POP POP POP POP POP JUMP INVALID LOG2 PUSH5 0x6970667358 0x22 SLT KECCAK256 0x1E 0xE 0xAC 0xEB DUP6 POP 0xE0 0xE9 PUSH10 0xBC73AC7DD7219C92653F LOG1 0x21 0xF8 SDIV DUP2 0xD4 0xA9 SHL JUMP GASLIMIT DUP13 0xDD SSTORE PUSH5 0x736F6C6343 STOP ADDMOD SHR STOP CALLER "},"methodIdentifiers":{"registrarHistoria(string,string,string,string)":"a157ed2f"}}}}}