{
  "_format": "hh-sol-artifact-1",
  "contractName": "HistoriaClinica",
  "sourceName": "contracts/HistoriaClinica.sol",
  "abi": [
    {
      "anonymous": false,
      "inputs": [
        {
          "indexed": true,
          "internalType": "address",
          "name": "autor",
          "type": "address"
        },
        {
          "indexed": false,
          "internalType": "string",
          "name": "fecha",
          "type": "string"
        },
        {
          "indexed": false,
          "internalType": "string",
          "name": "sintomas",
          "type": "string"
        },
        {
          "indexed": false,
          "internalType": "string",
          "name": "diagnostico",
          "type": "string"
        },
        {
          "indexed": false,
          "internalType": "string",
          "name": "tratamiento",
          "type": "string"
        }
      ],
      "name": "HistoriaRegistrada",
      "type": "event"
    },
    {
      "inputs": [
        {
          "internalType": "string",
          "name": "fecha",
          "type": "string"
        },
        {
          "internalType": "string",
          "name": "sintomas",
          "type": "string"
        },
        {
          "internalType": "string",
          "name": "diagnostico",
          "type": "string"
        },
        {
          "internalType": "string",
          "name": "tratamiento",
          "type": "string"
        }
      ],
      "name": "registrarHistoria",
      "outputs": [
        {
          "internalType": "bytes32",
          "name": "",
          "type": "bytes32"
        }
      ],
      "stateMutability": "nonpayable",
      "type": "function"
    }
  ],
  "bytecode": "0x6080604052348015600f57600080fd5b506105208061001f6000396000f3fe608060405234801561001057600080fd5b506004361061002b5760003560e01c8063a157ed2f14610030575b600080fd5b61004a60048036038101906100459190610249565b610060565b6040516100579190610339565b60405180910390f35b60003373ffffffffffffffffffffffffffffffffffffffff167f45f25703091e3eaeae833b5d196a970f4a43569fbc3948682cc36fee7f07cd60868686866040516100ae94939291906103d3565b60405180910390a284848484426040516020016100cf95949392919061049b565b604051602081830303815290604052805190602001209050949350505050565b6000604051905090565b600080fd5b600080fd5b600080fd5b600080fd5b6000601f19601f8301169050919050565b7f4e487b7100000000000000000000000000000000000000000000000000000000600052604160045260246000fd5b6101568261010d565b810181811067ffffffffffffffff821117156101755761017461011e565b5b80604052505050565b60006101886100ef565b9050610194828261014d565b919050565b600067ffffffffffffffff8211156101b4576101b361011e565b5b6101bd8261010d565b9050602081019050919050565b82818337600083830152505050565b60006101ec6101e784610199565b61017e565b90508281526020810184848401111561020857610207610108565b5b6102138482856101ca565b509392505050565b600082601f8301126102305761022f610103565b5b81356102408482602086016101d9565b91505092915050565b60008060008060808587031215610263576102626100f9565b5b600085013567ffffffffffffffff811115610281576102806100fe565b5b61028d8782880161021b565b945050602085013567ffffffffffffffff8111156102ae576102ad6100fe565b5b6102ba8782880161021b565b935050604085013567ffffffffffffffff8111156102db576102da6100fe565b5b6102e78782880161021b565b925050606085013567ffffffffffffffff811115610308576103076100fe565b5b6103148782880161021b565b91505092959194509250565b6000819050919050565b61033381610320565b82525050565b600060208201905061034e600083018461032a565b92915050565b600081519050919050565b600082825260208201905092915050565b60005b8381101561038e578082015181840152602081019050610373565b60008484015250505050565b60006103a582610354565b6103af818561035f565b93506103bf818560208601610370565b6103c88161010d565b840191505092915050565b600060808201905081810360008301526103ed818761039a565b90508181036020830152610401818661039a565b90508181036040830152610415818561039a565b90508181036060830152610429818461039a565b905095945050505050565b600081905092915050565b600061044a82610354565b6104548185610434565b9350610464818560208601610370565b80840191505092915050565b6000819050919050565b6000819050919050565b61049561049082610470565b61047a565b82525050565b60006104a7828861043f565b91506104b3828761043f565b91506104bf828661043f565b91506104cb828561043f565b91506104d78284610484565b602082019150819050969550505050505056fea26469706673582212201e0eaceb8550e0e969bc73ac7dd7219c92653fa121f80581d4a91b56458cdd5564736f6c634300081c0033",
  "linkReferences": {},
  "deployedLinkReferences": {}
}